:020000040000FA
:0400000007EF00F016
:100008003A82EAED01F02BEF02F0C5EC02F0E70EC0
:10001800036E2F0E046E800E056E84EC01F08EECDC
:1000280000F02E04D8B41BEF00F01DEF00F026EF0F
:1000380000F0020E2E18D8A424EF00F026EF00F0EE
:100048007DEF00F02A4A2B2A100E2A5C270E2B5827
:10005800D8A031EF00F033EF00F013EF00F0000EFE
:100068002B6E000E2A6E2D50D8B43DEF00F040EFF5
:1000780000F0010E41EF00F0000E2D6E2E04D8A402
:1000880048EF00F04AEF00F05FEF00F02D50D8B4D1
:1000980050EF00F052EF00F057EF00F081500309E5
:1000A800816E5AEF00F08150FC0B816E81503F0B3E
:1000B800816E13EF00F0020E2E18D8A466EF00F040
:1000C80068EF00F08AEF00F02D50D8B46EEF00F022
:1000D80070EF00F075EF00F08150C009816E78EF85
:1000E80000F081503F0B816E8150FC0B816E13EF45
:1000F80000F08150FC0B816E81503F0B816E2D6AA0
:10010800000E2B6E000E2A6E13EF00F013EF00F0B6
:1001180007EF00F0000E1E6E000E1D6E20EE15F0AB
:10012800070EDE6AE806FDE21F6A1D0E096E150E4F
:100138000A6E1F0E0B6E3FEC01F01F50D8B4A7EFEC
:1001480000F0A9EF00F0F5EF00F0D3EF00F0150E86
:10015800066E1FC007F0B1EC02F0F5EF00F0150EC7
:10016800066E1FC007F09CEC02F0F5EF00F0150ECC
:10017800066E1FC007F0BAEC01F0F5EF00F0150E9F
:10018800016E1FC002F0E8EC02F0F5EF00F0150E6A
:10019800066E1FC007F0F6EC00F0F5EF00F01DC08A
:1001A80013F01EC014F01450000AD8B4DEEF00F0AB
:1001B800F5EF00F01350100AD8B4ABEF00F0300A96
:1001C800D8B4B3EF00F0100AD8B4BBEF00F0700A4F
:1001D800D8B4C3EF00F0100AD8B4CBEF00F0F5EFB5
:1001E80000F012000750D8B4FCEF00F0FEEF00F06A
:1001F8003EEF01F00650D96EDA6A310EDE18D8A447
:1002080008EF01F00AEF01F016EF01F0010E2E6E73
:10021800F90E036E2F0E046ECB0E056E84EC01F002
:100228003EEF01F00650D96EDA6A320EDE18D8A415
:1002380020EF01F022EF01F02EEF01F0020E2E6EFA
:10024800FC0E036E2F0E046ECB0E056E84EC01F0CF
:100258003EEF01F02E6AF60E036E2F0E046ECB0EE3
:10026800056E84EC01F08150FC0B816E81503F0BD0
:10027800816E2C6A120060AE44EF01F046EF01F087
:1002880083EF01F048EC02F00950D96EDA6A01C038
:10029800DEFF02C0DDFF0B50D96EDA6A65CFDFFFE3
:1002A800660E0F6E0F0E106E000E126E000E116E9F
:1002B8006CEF01F011500F24D96E12501020DA6E35
:1002C8000A501124E16EE26ADFCFE7FF114A122AD1
:1002D8000B50D96EDA6ADF500C6E0D6A0C50115C47
:1002E8001250800A0E6E0D50800A0E58D8A07FEF6B
:1002F80001F081EF01F05EEF01F0609EA490120022
:10030800000E016E055065EC02F0A1EF01F0010E40
:10031800016E03C0F6FF04C0F7FFF86A050EF76424
:1003280003D00800F55005D0F6CFE9FFF7CFEAFF74
:10033800EF5065EC02F0034A042A03C0F6FF04C03C
:10034800F7FFF86A050EF76403D00800F55005D0EA
:10035800F6CFE9FFF7CFEAFFEF500009D8A4B7EFCF
:1003680001F0B9EF01F08BEF01F01200030E076402
:10037800C0EF01F0C2EF01F0E9EF01F0000E096EE5
:10038800000E086E08502F0FD96EDA6A065008243E
:10039800E16EE26AE750300FDF6E084A092A09BEAB
:1003A800DFEF01F0095009E1040E085CD8A0DFEF87
:1003B80001F0E1EF01F0C6EF01F0336A2F0E036E92
:1003C800046AC60E056E84EC01F012000600F2A461
:1003D800F0EF01F0F2EF01F00BEF02F0080ED62477
:1003E800D66E000ED720D76E284A292A210E281843
:1003F80007E14E0E2918D8A404EF02F006EF02F028
:100408000AEF02F0000E296E000E286EF2943A925E
:100418001100939493861F0E6F166F8E800E6E18C0
:10042800D8A419EF02F01BEF02F012EF02F0776A7E
:10043800E10E706E1B0E716E030E726E0D01D46BA1
:100448001F0E6F166F50606A608A608C1200C40EAF
:10045800F66E050EF76E000EF86E00EE2FF010EE39
:100468000BF00900F5CFEEFFE550E150FAE100EEA0
:1004780020F00F0EEE6AE806FDE13A903A92000E7F
:10048800F86E000109EF00F06150036E046AD8901D
:1004980003360436D89003360436D890033604362B
:1004A8006238E842070B070B056E066A0350051011
:1004B800076E04500610086E07C001F008C002F06D
:1004C8001200026E01B06BEF02F06EEF02F0828252
:1004D8006FEF02F0829202C083FF82848294958E2D
:1004E800828082928284829483BE7DEF02F07FEFC5
:1004F80002F076EF02F08290959E1200956A945071
:10050800F80B946E8290000E016E020E65EC02F0FC
:10051800000E016E380E65EC02F0000E016E0C0E36
:1005280065EC02F0000E016E010E65EC02F012009F
:100538000650D96EDA6ADF50346E0650D96EDA6A20
:10054800010ED926DF50356E366A340E036E046A02
:10055800C30E056E84EC01F012000650D96EDA6AFB
:10056800DF50376E0650D96EDA6A010ED926DF5091
:10057800386E370E036E046AC00E056E84EC01F007
:10058800120082EC02F00DEC02F0DBEC02F0F28CCF
:10059800F28ED0EC02F01200D58CD59AD58ED58685
:1005A800000ED76E060ED66EF294F28A1200080E6E
:1005B800936E816A9392939C939E120030303030F0
:0705C800004F4E003030002F
:0205D000120017
:102FE6000053502047522052504D2020494E440055
:0A2FF6002D2D003C2D002D3E0000A3
:020000040020DA
:08000000FFFFFFFFFFFFFFFF00
:020000040030CA
:0E000000FF071F1FFF8285FF0FC00FE00F409C
:00000001FF
