:020000040000FA
:04000000FEEF17F008
:1024E20094500F09946E1200D58CD59AD58ED5864C
:1024F200000ED76E060ED66EF294F28A1200C08ECD
:10250200C08AC098C096C090C082C094C292C19A3C
:10251200C198C46AC36AC2801200F28C080E936E1C
:10252200816A80EC12F071EC12F0C3EC12F075ECDF
:1025320012F0F28E120001500302F3CF05F0F4CF35
:1025420006F001500402F350062602500302F35033
:10255200062605C001F006C002F01200000EF66E5B
:10256200300EF76E000EF86E0900F5CF52F000EE55
:1025720034F01E0EEE6AE806FDE1000EF86E000170
:10258200D0EF14F0939493861F0E6F166F8E800E09
:102592006E18D8A4CFEF12F0D1EF12F0C8EF12F0FC
:1025A200776AE10E706E1B0E716E030E726E0D0174
:1025B200D46B1F0E6F166F50606A120001C003F0D9
:1025C200070E0316050E046ED8900336042EE5EFAF
:1025D20012F003500F01426F01C003F002C004F079
:1025E200D89004320332D89004320332D8900432A5
:1025F20003320350416F1200076E07C003F0D890F8
:102602000336D8900336C250C30B0310C26EC28287
:10261200C2B20EEF13F010EF13F009EF13F0C35034
:10262200C4CF03F0046A03C004F0036A0310056E0A
:102632000450066E05C001F006C002F012000A50F6
:102642000B10D8B427EF13F029EF13F04DEF13F06E
:10265200010E0C6E31EF13F0D8900A360B360C2AAD
:102662000BAE36EF13F038EF13F02DEF13F00A50E4
:10267200085C0B500958D8A041EF13F043EF13F058
:1026820047EF13F00A50085E0B50095AD8900B32EC
:102692000A320C2E38EF13F008C008F009C009F016
:1026A20012000F01436B446B05C001F006C002F03B
:1026B200DFEC12F008C045FF460E0C6E0F0E0D6ED9
:1026C200000E0F6E000E0E6E75EF13F007500E2403
:1026D200D96EDA6A0E500C24E16E0F500D20E26EB4
:1026E200DFCFE7FF0E4A0F2A0850096E0A6A095027
:1026F2000E5C0F50800A0B6E0A50800A0B58D8A04D
:1027020085EF13F087EF13F067EF13F00F014087A7
:102712001200000E066E000E056E03500410D8B4AF
:1027220095EF13F097EF13F0BFEF13F0010E076E62
:102732009FEF13F0D89003360436072A04AEA4EFB5
:1027420013F0A6EF13F09BEF13F0D8900536063680
:102752000350015C04500258D8A0B2EF13F0B4EF5A
:1027620013F0B9EF13F00350015E0450025A0580D2
:10277200D89004320332072EA6EF13F005C001F001
:1027820006C002F01200016E0104D8A4CBEF13F0D0
:10279200CDEF13F0F2EF13F082500F0B0F0AD8B403
:1027A200D5EF13F0D7EF13F0E4EF13F05250D8B493
:1027B200DDEF13F0DFEF13F0E4EF13F0526A825013
:1027C2000F0BFDEF13F082500F0B0F0AD8A4ECEFA2
:1027D20013F0EEEF13F0FCEF13F0010E526EFCEF6C
:1027E20013F00150D8A4F8EF13F0FAEF13F0FCEF56
:1027F20013F0E0EF13F0FF0E120010C008F011C04A
:1028020009F0000E0B6E0A0E0A6E20EC13F008504F
:102812004E6E000E046E0A0E036E10C001F011C05F
:1028220002F08AEC13F001C008F002C009F0000EB9
:102832000B6E0A0E0A6E20EC13F008504D6E000E5D
:10284200046E640E036E10C001F011C002F08AEC37
:1028520013F001C008F002C009F0000E0B6E0A0E60
:102862000A6E20EC13F008504C6E10C001F011C03B
:1028720002F0030E046EE80E036E8AEC13F00150B0
:102882004B6E000E066E300E056E4B0E076E040E7A
:10289200086E52EC13F012002A342B34316E315090
:1028A200D8A456EF14F058EF14F062EF14F0000EB3
:1028B200286E000E296E000E2A6E000E2B6ECFEFD0
:1028C20014F028C02CF029C02DF02AC02EF02BC005
:1028D2002FF0200E72EF14F0D8902F322E322D32BC
:1028E2002C32E82E6DEF14F02C50306E2A8EFF0E33
:1028F2002816FF0E2916FF0E2A16000E2B16960E0C
:10290200315E31BE89EF14F087EF14F09FEF14F0BF
:102912003150800A970FD8B091EF14F093EF14F072
:1029220095EF14F058EF14F0D8902B322A32293256
:102932002832313E95EF14F0B7EF14F01F0E3164D8
:10294200A5EF14F0A7EF14F0AFEF14F058EF14F066
:10295200D890283629362A362B3631063150D8A45B
:10296200B5EF14F0B7EF14F0A9EF14F03050D8B46B
:10297200BDEF14F0BFEF14F0C7EF14F02B1E2A1EA8
:10298200291E286C000E29222A222B2228C028F078
:1029920029C029F02AC02AF02BC02BF012008EEC9D
:1029A20012F0040EFDEC12F001C032F002C033F05E
:1029B200140E136EAE0E146E230E156E410E166EAD
:1029C20032C001F033C002F0036A046A000E56EC12
:1029D20015F001C00FF002C010F003C011F004C0E6
:1029E20012F030EC16F00FC028F010C029F011C020
:1029F2002AF012C02BF04DEC14F028C048F029C088
:102A020049F048C001F049C002F0000E046E3C0ECD
:102A1200036E9CEC12F001C048F002C049F048C0BD
:102A220010F049C011F0FEEC13F0010EC4EC13F0EB
:102A32004A6E0E0E4A18D8A421EF15F023EF15F0B6
:102A42002BEF15F0310E4F6E000E456E000E446EE8
:102A520048EF15F00D0E4A18D8A432EF15F034EFF6
:102A620015F039EF15F0300E4F6E816A48EF15F010
:102A72000B0E4A18D8A440EF15F042EF15F048EFBC
:102A820015F0320E4F6E000E456E000E446E000EB3
:102A9200066E500E056E4F0E076E010E086E52EC5A
:102AA20013F0D2EF14F0FEEF17F0096E0950D8B40C
:102AB2005DEF15F05FEF15F081EF15F004BE66EFE4
:102AC20015F064EF15F081EF15F001C005F002C0BA
:102AD20006F003C007F004C008F0051E061E071E1C
:102AE200081E052A000E06220722082205C00BF046
:102AF20006C00CF007C00DF008C00EF089EF15F00B
:102B020001C00BF002C00CF003C00DF004C00EF0C7
:102B12000150021003100410D8A492EF15F094EFA4
:102B220015F09EEF15F0000E016E000E026E000E03
:102B3200036E000E046E2FEF16F0960E0A6EA8EFCB
:102B420015F00A2AD8900E320D320C320B32000EDA
:102B52000B14056E000E0C14066E000E0D14076E9B
:102B6200FE0E0E14086E0550061007100810D8A4A9
:102B7200BDEF15F0BFEF15F0A2EF15F0CDEF15F098
:102B82000A2A010E0B26000E0C220D220E22D890CC
:102B92000E320D320C320B32000E0B14056E000E8B
:102BA2000C14066E000E0D14076EFF0E0E14086E46
:102BB2000550061007100810D8A4E2EF15F0E4EF54
:102BC20015F0C1EF15F0ECEF15F00A06D8900B36B0
:102BD2000C360D360E360DBEF1EF15F0F3EF15F093
:102BE200FBEF15F0020E0A60F9EF15F0FBEF15F09E
:102BF200E6EF15F00AB000EF16F002EF16F003EF61
:102C020016F00D9ED8900A320AC005F0066A076ACD
:102C1200086A05C008F0076A066A056A05500B12C1
:102C220006500C1207500D1208500E120950D8B45B
:102C32001DEF16F01FEF16F027EF16F004BE26EF79
:102C420016F024EF16F027EF16F00E8E0BC001F0EF
:102C52000CC002F00DC003F00EC004F012001250BE
:102C6200800B1F6E12501224266E11AE3BEF16F02F
:102C72003DEF16F03EEF16F026802650D8B444EF12
:102C820016F046EF16F05AEF16F02628D8A44CEFAD
:102C920016F04EEF16F056EF16F0000E0F6E000E05
:102CA200106E000E116E000E126E118E126A62EF1D
:102CB20016F0000E0F6E000E106E000E116E000E5A
:102CC200126E1650800B1F1A16501624276E15AE60
:102CD2006DEF16F06FEF16F070EF16F027802750A9
:102CE200D8B476EF16F078EF16F08CEF16F02728AE
:102CF200D8A47EEF16F080EF16F088EF16F0000EE3
:102D0200136E000E146E000E156E000E166E158EEA
:102D1200166A94EF16F0000E136E000E146E000E7B
:102D2200156E000E166E1350141015101610D8A43E
:102D32009DEF16F09FEF16F0B7EF16F0000E0F6E34
:102D4200000E106E000E116E000E126E800E111229
:102D52007F0E12121F5012120FC00FF010C010F08F
:102D620011C011F012C012F0F7EF17F02650D8A4DC
:102D7200BDEF16F0BFEF16F0C9EF16F0000E0F6EA2
:102D8200000E106E000E116E000E126EF7EF17F0AD
:102D9200275026C017F0186A175E000E185A7F0EC9
:102DA2001724206E000E1820216E0FC01BF010C0D9
:102DB2001CF011C01DF012C01EF0000E0F6E000EAE
:102DC200106E000E116E000E126E000E226E000EBC
:102DD200236E000E246E000E256E276A29EF17F06F
:102DE2002750D8B4F7EF16F0F9EF16F010EF17F0FE
:102DF200D8901B361C361D361E36D8900F3610362C
:102E02001136123625AE08EF17F00AEF17F00BEF66
:102E120017F00F80D89022362336243625361350E9
:102E22001B5C14501C5815501D5816501E58D8A023
:102E32001DEF17F01FEF17F028EF17F0258C135036
:102E42001B5E14501C5A15501D5A16501E5A272A22
:102E5200190E27642FEF17F031EF17F0F1EF16F08C
:102E62001B501C101D101E10D8B43AEF17F03CEF87
:102E720017F054EF17F0228054EF17F0D8900F3666
:102E820010361136123625AE49EF17F04BEF17F018
:102E92004CEF17F00F80D890223623362436253691
:102EA2002006D8A0210611AE59EF17F05BEF17F0FC
:102EB2003FEF17F0276A25AE61EF17F063EF17F0C7
:102EC20087EF17F0FF0E2214176EFF0E2314186EF1
:102ED200FF0E2414196E7F0E25141A6E1750181047
:102EE20019101A10D8B478EF17F07AEF17F07EEFB6
:102EF20017F0010E276E87EF17F00FA083EF17F080
:102F020085EF17F087EF17F07AEF17F02750D8B454
:102F12008DEF17F08FEF17F0B3EF17F0010E0F26BA
:102F2200000E10221122122212A09AEF17F09CEF2B
:102F320017F0B3EF17F00FC017F010C018F011C060
:102F420019F012C01AF01A341A3219321832173222
:102F520017C00FF018C010F019C011F01AC012F00B
:102F6200204A212A21BEBEEF17F0215008E1202875
:102F7200D8A0BEEF17F0C0EF17F0CBEF17F0000E9E
:102F8200216E2068000E0F6E000E106E000E116E84
:102F9200000E126E21BED8EF17F0215006E1200478
:102FA200D8B0D6EF17F0D8EF17F0E5EF17F0000E14
:102FB200216E000E206E000E0F6E000E106E000EBF
:102FC200116E000E126E1F6A20C026F026A0ECEFD2
:102FD20017F0EEEF17F0F1EF17F0118EF2EF17F096
:102FE200119ED8902630126EABEF16F0120000E759
:0F2FF20021CB6B2D6EEE23EF6F00AFEF12F001CE
:020000040020DA
:08000000FFFFFFFFFFFFFFFF00
:020000040030CA
:0E000000FF071F1FFF8285FF0FC00FE00F409C
:00000001FF
