:020000040000FA
:04000000FEEF17F008
:1006000000001950800B266E195019242D6E18AE5B
:100610000CEF03F00EEF03F00FEF03F02D802D50E1
:10062000D8B415EF03F017EF03F02BEF03F02D28EC
:10063000D8A41DEF03F01FEF03F027EF03F0000E27
:10064000166E000E176E000E186E000E196E188EC4
:10065000196A33EF03F0000E166E000E176E000ECF
:10066000186E000E196E1D50800B261A1D501D2489
:100670002E6E1CAE3EEF03F040EF03F041EF03F0AF
:100680002E802E50D8B447EF03F049EF03F05DEF12
:1006900003F02E28D8A44FEF03F051EF03F059EFE9
:1006A00003F0000E1A6E000E1B6E000E1C6E000E84
:1006B0001D6E1C8E1D6A65EF03F0000E1A6E000E93
:1006C0001B6E000E1C6E000E1D6E1A501B101C10AF
:1006D0001D10D8A46EEF03F070EF03F088EF03F065
:1006E000000E166E000E176E000E186E000E196EBC
:1006F000800E18127F0E19122650191216C016F00D
:1007000017C017F018C018F019C019F0C8EF04F09E
:100710002D50D8A48EEF03F090EF03F09AEF03F082
:10072000000E166E000E176E000E186E000E196E7B
:10073000C8EF04F02E502DC01EF01F6A1E5E000E82
:100740001F5A7F0E1E24276E000E1F20286E16C013
:1007500022F017C023F018C024F019C025F0000EB5
:10076000166E000E176E000E186E000E196E000E3B
:10077000296E000E2A6E000E2B6E000E2C6E2E6A55
:10078000FAEF03F02E50D8B4C8EF03F0CAEF03F02D
:10079000E1EF03F0D8902236233624362536D89060
:1007A00016361736183619362CAED9EF03F0DBEFB4
:1007B00003F0DCEF03F01680D89029362A362B366A
:1007C0002C361A50225C1B5023581C5024581D50A4
:1007D0002558D8A0EEEF03F0F0EF03F0F9EF03F0A7
:1007E0002C8C1A50225E1B50235A1C50245A1D5028
:1007F000255A2E2A190E2E6400EF04F002EF04F0A1
:10080000C2EF03F02250231024102510D8B40BEFB0
:1008100004F00DEF04F025EF04F0298025EF04F03B
:10082000D89016361736183619362CAE1AEF04F053
:100830001CEF04F01DEF04F01680D89029362A36FC
:100840002B362C362706D8A0280618AE2AEF04F03F
:100850002CEF04F010EF04F02E6A2CAE32EF04F00F
:1008600034EF04F058EF04F0FF0E29141E6EFF0E53
:100870002A141F6EFF0E2B14206E7F0E2C14216E77
:100880001E501F1020102110D8B449EF04F04BEF78
:1008900004F04FEF04F0010E2E6E58EF04F016A096
:1008A00054EF04F056EF04F058EF04F04BEF04F06F
:1008B0002E50D8B45EEF04F060EF04F084EF04F043
:1008C000010E1626000E17221822192219A06BEF0E
:1008D00004F06DEF04F084EF04F016C01EF017C0B2
:1008E0001FF018C020F019C021F02134213220322D
:1008F0001F321E321EC016F01FC017F020C018F0A5
:1009000021C019F0274A282A28BE8FEF04F028506A
:1009100008E12728D8A08FEF04F091EF04F09CEFB6
:1009200004F0000E286E2768000E166E000E176E7B
:10093000000E186E000E196E28BEA9EF04F02850A4
:1009400006E12704D8B0A7EF04F0A9EF04F0B6EF52
:1009500004F0000E286E000E276E000E166E000EBC
:10096000176E000E186E000E196E266A27C02DF045
:100970002DA0BDEF04F0BFEF04F0C2EF04F0188E1D
:10098000C3EF04F0189ED8902D30196E7CEF03F061
:100990001200106E1050D8B4D0EF04F0D2EF04F073
:1009A000F4EF04F00BBED9EF04F0D7EF04F0F4EF4E
:1009B00004F008C00CF009C00DF00AC00EF00BC026
:1009C0000FF00C1E0D1E0E1E0F1E0C2A000E0D2207
:1009D0000E220F220CC012F00DC013F00EC014F046
:1009E0000FC015F0FCEF04F008C012F009C013F0BE
:1009F0000AC014F00BC015F0085009100A100B10B3
:100A0000D8A405EF05F007EF05F011EF05F0000E93
:100A1000086E000E096E000E0A6E000E0B6EA2EF3D
:100A200005F0960E116E1BEF05F0112AD8901532C5
:100A3000143213321232000E12140C6E000E131404
:100A40000D6E000E14140E6EFE0E15140F6E0C506B
:100A50000D100E100F10D8A430EF05F032EF05F096
:100A600015EF05F040EF05F0112A010E1226000ED9
:100A7000132214221522D890153214321332123256
:100A8000000E12140C6E000E13140D6E000E1414D2
:100A90000E6EFF0E15140F6E0C500D100E100F1071
:100AA000D8A455EF05F057EF05F034EF05F05FEFF0
:100AB00005F01106D890123613361436153614BECA
:100AC00064EF05F066EF05F06EEF05F0020E1160C1
:100AD0006CEF05F06EEF05F059EF05F011B073EF14
:100AE00005F075EF05F076EF05F0149ED890113201
:100AF00011C00CF00D6A0E6A0F6A0CC00FF00E6A7E
:100B00000D6A0C6A0C5012120D5013120E50141272
:100B10000F5015121050D8B490EF05F092EF05F079
:100B20009AEF05F00BBE99EF05F097EF05F09AEFFD
:100B300005F0158E12C008F013C009F014C00AF0B9
:100B400015C00BF01200010E49EC08F0456E452867
:100B5000D8B4ADEF05F0AFEF05F03DEF06F045047A
:100B6000D8A4B5EF05F0B7EF05F0ECEF05F0424A79
:100B7000432A40044110D8A4C0EF05F0C2EF05F0AD
:100B8000D8EF05F043BECEEF05F0435009E1080E63
:100B9000425CD8A0CEEF05F0D0EF05F0D8EF05F01D
:100BA000000E436E010E426E000E416E000E406E4E
:100BB00043BEE4EF05F0435009E1080E425CD8A0C3
:100BC000E4EF05F0E6EF05F03DEF06F0000E436EB2
:100BD000070E426E3DEF06F0020E4518D8A4F3EF63
:100BE00005F0F5EF05F02AEF06F04206D8A043061F
:100BF00040044110D8A4FFEF05F001EF06F017EF15
:100C000006F043BE0DEF06F0435009E1070E425CCB
:100C1000D8A00DEF06F00FEF06F017EF06F0000E6C
:100C2000436E010E426E000E416E000E406E43BEDA
:100C300024EF06F0435006E14204D8B022EF06F05C
:100C400024EF06F03DEF06F0000E436E000E426EFC
:100C50003DEF06F0030E4518D8A431EF06F033EF50
:100C600006F03DEF06F0000E436E080E426E000ED9
:100C7000416E010E406E3DEF06F0000E066E200E36
:100C8000056E4250030DF350600F076E020E086EA2
:100C900083EC08F01A0E116E5E0E106E6E0EE82ECA
:100CA000FED7102EFCD7112EFAD700D01200819A51
:100CB000818C818E81B25FEF06F061EF06F064EF08
:100CC00006F0010EDAEF06F081B469EF06F06BEF83
:100CD00006F06EEF06F0040EDAEF06F081B673EF61
:100CE00006F075EF06F078EF06F0070EDAEF06F083
:100CF00081B87DEF06F07FEF06F082EF06F00A0E76
:100D0000DAEF06F0818A819C818E81B28AEF06F04B
:100D10008CEF06F08FEF06F0020EDAEF06F081B4EA
:100D200094EF06F096EF06F099EF06F0050EDAEF75
:100D300006F081B69EEF06F0A0EF06F0A3EF06F0F6
:100D4000080EDAEF06F081B8A8EF06F0AAEF06F079
:100D5000ADEF06F00B0EDAEF06F0818A818C819EF2
:100D6000819E81B2B6EF06F0B8EF06F0BBEF06F059
:100D7000030EDAEF06F081B4C0EF06F0C2EF06F022
:100D8000C5EF06F0060EDAEF06F081B6CAEF06F000
:100D9000CCEF06F0CFEF06F0090EDAEF06F081B8DF
:100DA000D4EF06F0D6EF06F0D9EF06F00C0EDAEF2E
:100DB00006F0FF0E120031343234386E3850D8A4A9
:100DC000E4EF06F0E6EF06F0F0EF06F0000E2F6E0F
:100DD000000E306E000E316E000E326E5DEF07F0C9
:100DE0002FC033F030C034F031C035F032C036F0AF
:100DF000200E00EF07F0D8903632353234323332DD
:100E0000E82EFBEF06F03350376E318EFF0E2F16B3
:100E1000FF0E3016FF0E3116000E3216960E385E9B
:100E200038BE17EF07F015EF07F02DEF07F0385039
:100E3000800A970FD8B01FEF07F021EF07F023EFDC
:100E400007F0E6EF06F0D8903232313230322F32EE
:100E5000383E23EF07F045EF07F01F0E386433EFFD
:100E600007F035EF07F03DEF07F0E6EF06F0D8901A
:100E70002F3630363136323638063850D8A443EF64
:100E800007F045EF07F037EF07F03750D8B44BEFD6
:100E900007F04DEF07F055EF07F0321E311E301E00
:100EA0002F6C000E3022312232222FC02FF030C0A2
:100EB00030F031C031F032C032F01200140E1A6E30
:100EC000AE0E1B6E230E1C6E410E1D6E040EEDEC5D
:100ED00008F001C008F002C009F00A6A0B6A000EAF
:100EE000C9EC04F008C016F009C017F00AC018F0E9
:100EF0000BC019F001EC03F016C02FF017C030F052
:100F000018C031F019C032F0DBEC06F02FC03EF013
:100F100030C03FF03EC001F03FC002F0000E046E52
:100F20000A0E036EBBEC08F00150300F3C6E3EC061
:100F300001F03FC002F0000E046E0A0E036E0FECCB
:100F400008F00150300F3B6E3D6A000E066E100E29
:100F5000056E3B0E076E020E086E83EC08F01A0E4B
:100F60003A6E5E0E396E6E0EE82EFED7392EFCD725
:100F70003A2EFAD700D01200956A9450F80B946E6E
:100F80008290C30E036ECD0EE82EFED7032EFCD743
:100F90000000000E016E330E6EEC09F01B0E036EA6
:100FA0009E0EE82EFED7032EFCD700D0000E016E59
:100FB000330E6EEC09F0A60EE82EFED700D0000E20
:100FC000016E330E6EEC09F000D000D00000000E70
:100FD000016E020E6EEC09F0A60EE82EFED700D0D0
:100FE000000E016E380E6EEC09F0A60EE82EFED74C
:100FF00000D0000E016E010E6EEC09F0040E036EBF
:101000003E0EE82EFED7032EFCD7000E016E0C0E0E
:101010006EEC09F0A60EE82EFED700D01200000EEE
:10102000066E000E056E03500410D8B41AEF08F0D7
:101030001CEF08F044EF08F0010E076E24EF08F0F3
:10104000D89003360436072A04AE29EF08F02BEFB8
:1010500008F020EF08F0D890053606360350015C02
:1010600004500258D8A037EF08F039EF08F03EEFEF
:1010700008F00350015E0450025A0580D8900432F3
:101080000332072E2BEF08F005C001F006C002F076
:101090001200016E0104D8A450EF08F052EF08F0DE
:1010A00075EF08F057EC06F0446E4428D8B45BEFB7
:1010B00008F05DEF08F069EF08F04650D8B463EF30
:1010C00008F065EF08F069EF08F0466A445082EFD7
:1010D00008F04428D8A46FEF08F071EF08F081EF12
:1010E00008F0010E466E81EF08F00150D8A47BEFA6
:1010F00008F07DEF08F081EF08F057EC06F082EF82
:1011000008F0FF0E12000F01436B446B05C001F0A5
:1011100006C002F050EC09F008C045FF460E0C6E08
:101120000F0E0D6E000E0F6E000E0E6EA6EF08F085
:1011300007500E24D96EDA6A0E500C24E16E0F505F
:101140000D20E26EDFCFE7FF0E4A0F2A0850096E2E
:101150000A6A09500E5C0F50800A0B6E0A50800A12
:101160000B58D8A0B6EF08F0B8EF08F098EF08F0E9
:101170000F014087120003500410D8B4C2EF08F0EA
:10118000C4EF08F0E8EF08F0010E056ECCEF08F0B0
:10119000D89003360436052A04AED1EF08F0D3EF19
:1011A00008F0C8EF08F00350015C04500258D8A0C2
:1011B000DCEF08F0DEEF08F0E2EF08F00350015E2C
:1011C0000450025AD89004320332052ED3EF08F0AF
:1011D00001C001F002C002F01200076E07C003F068
:1011E000D8900336D8900336C250C30B0310C26E9A
:1011F000C282C2B2FEEF08F000EF09F0F9EF08F08A
:10120000C350C4CF03F0046A03C004F0036A0310A0
:10121000056E0450066E05C001F006C002F0120013
:10122000320EF66E130EF76E000EF86E00EE60F0E2
:1012300010EE1BF00900F5CFEEFFE550E150FAE1AA
:10124000000EF66E300EF76E000EF86E0900F5CF48
:1012500046F0456A446A436A426A416A406A00014C
:10126000A7EF09F0939493861F0E6F166F8E800E72
:101270006E18D8A43EEF09F040EF09F037EF09F0FF
:10128000776AE10E706E1B0E716E030E726E0D01A9
:10129000D46B1F0E6F166F50606A608A608C1200EC
:1012A00001C003F0070E0316050E046ED890033636
:1012B000042E56EF09F003500F01426F01C003F0F6
:1012C00002C004F0D89004320332D89004320332C2
:1012D000D890043203320350416F1200026E01B005
:1012E00074EF09F077EF09F0828278EF09F08292CB
:1012F00002C083FF82848294958E8280829282844F
:10130000829483BE86EF09F088EF09F07FEF09F041
:101310008290959E1200C08EC09AC088C096C090E0
:10132000C082C094C292C19AC198C46AC36AC28082
:1013300012004F4E00474E004731004732004733FE
:0D13400000473400473500475200435F006E
:10134E00B1EC09F05EEC07F0A3EC05F0A9EF09F0A3
:10135E00FEEF17F08BEC09F0BCEC07F0BAEC09F0DD
:10136E0032EC09F012000F0EC16E1E0E936EF19E3E
:08137E008150E009816E1200AC
:052FFC0010EF09F001D7
:020000040020DA
:08000000FFFFFFFFFFFFFFFF00
:020000040030CA
:0E000000FF071F1FFF8285FF0FC00FE00F409C
:00000001FF
